:100000000C9458000C9480000C9480000C94800098
:100010000C9480000C9480000C9480000C94800060
:100020000C9480000C9480000C9480000C94800050
:100030000C9480000C9480000C9480000C94800040
:100040000C9496040C9480000C9464040C943E046C
:100050000C9480000C9480000C9480000C94800020
:100060000C94E0040C94800000000000250028009F
:100070002B00040404040404040402020202020229
:10008000030303030303010204081020408001025C
:1000900004081020010204081020000000080002DB
:1000A0000100000304070000000000000000FF053D
:1000B00011241FBECFEFD8E0DEBFCDBF11E0A0E01E
:1000C000B1E0E6E8F6E102C005900D92AE32B1076C
:1000D000D9F722E0AEE2B1E001C01D92A73AB20723
:1000E000E1F710E0C8E5D0E004C02197FE010E94CE
:1000F0006308C735D107C9F70E9438060C94410B35
:100100000C9400009091AD018091AC012FEF3FEF76
:10011000981748F4E92FF0E0E457FE4F208130E0D3
:100120009F5F9093AD01C90108959091AD018091B9
:10013000AC012FEF3FEF981748F4E92FF0E0E457B8
:10014000FE4F208130E09F5F9093AD01C90108957B
:1001500008950895AF92BF92CF92DF92EF92FF92EF
:100160000F931F93CF93DF936C017B018B01040FDF
:10017000151FEB015E01AE18BF08C017D10759F07B
:100180006991D601ED91FC910190F081E02DC601BD
:100190000995892B79F7C501DF91CF911F910F91B7
:1001A000FF90EF90DF90CF90BF90AF900895FC014B
:1001B000538D448D252F30E0842F90E0821B930BCC
:1001C000541710F0CF96089501970895FC01918D72
:1001D000828D981761F0A28DAE0FBF2FB11D5D9675
:1001E0008C91928D9F5F9F73928F90E008958FEF17
:1001F0009FEF0895FC01918D828D981731F0828DCB
:10020000E80FF11D858D90E008958FEF9FEF089521
:10021000FC01918D228D892F90E0805C9F4F821B85
:1002200091098F73992708958EEF91E00E9408013C
:1002300021E0892B09F420E0822F089580E090E0EE
:10024000892B29F00E94140181110C94000008955B
:10025000FC01A48DA80FB92FB11DA35ABF4F2C913B
:10026000848D90E001968F739927848FA689B78932
:100270002C93A089B1898C91837080648C93938D29
:10028000848D981306C00288F389E02D80818F7DCC
:1002900080830895EF92FF920F931F93CF93DF9384
:1002A000EC0181E0888F9B8D8C8D98131AC0E889B2
:1002B000F989808185FF15C09FB7F894EE89FF8981
:1002C0006083E889F98980818370806480839FBF1F
:1002D00081E090E0DF91CF911F910F91FF90EF901F
:1002E0000895F62E0B8D10E00F5F1F4F0F7311272F
:1002F000E02E8C8D8E110CC00FB607FCFACFE8896A
:10030000F989808185FFF5CFCE010E942801F1CFC8
:10031000EB8DEC0FFD2FF11DE35AFF4FF0829FB7DD
:10032000F8940B8FEA89FB8980818062CFCFCF93CD
:10033000DF93EC01888D8823B9F0AA89BB89E8890D
:10034000F9898C9185FD03C0808186FD0DC00FB6B3
:1003500007FCF7CF8C9185FFF2CF808185FFEDCF31
:10036000CE010E942801E9CFDF91CF91089590E05E
:10037000FC01E656FF4F2491FC01EA57FF4F3491F0
:10038000FC01EE58FF4FE491EE23C9F0222339F02F
:10039000233001F1A8F4213019F1223029F1F0E0E5
:1003A000EE0FFF1FE859FF4FA591B4918FB7F89456
:1003B000EC91611126C030953E233C938FBF089588
:1003C0002730A9F02830C9F0243049F78091800007
:1003D0008F7D03C0809180008F7780938000DFCF76
:1003E00084B58F7784BDDBCF84B58F7DFBCF8091C3
:1003F000B0008F778093B000D2CF8091B0008F7D16
:10040000F9CF3E2BDACF3FB7F894809177019091E6
:100410007801A0917901B0917A0126B5A89B05C019
:100420002F3F19F00196A11DB11D3FBFBA2FA92F73
:10043000982F8827BC01CD01620F711D811D911D70
:1004400042E0660F771F881F991F4A95D1F70895DC
:1004500020914F01260F3327331F21323105ECF451
:100460002091D401FC0190E080E0243069F082E02A
:100470000895A0914F012191AC01415D5E4FA40F01
:10048000B52FB11D2C930196861798F380914F01DB
:10049000680F60934F0180E0089581E00895109205
:1004A000D40181E08093D3011092AE0161E082E13A
:1004B0000E94B70161E083E10E94B701E9EBF0E03F
:1004C00080818E7F808380818D7F808388E480938C
:1004D000B80085E48093BC000895CF93DF9391E04A
:1004E00090932E018823B9F0C091B800D091BA0042
:1004F0008091BC008A7B8093BC0060E082E10E9416
:10050000B70160E083E10E94B7010E944F02D093DF
:10051000BA00C093B800DF91CF9108958F929F9257
:10052000AF92BF92CF92DF92EF92FF920F931F9301
:10053000CF93DF93D091FD01D13208F0D7C0182FAF
:10054000C091FC010E9403026B017C018091D401E7
:1005500081116BC082E08093D4011093D3018FEF9F
:100560008093D2011092D101D093D001ACEDB1E0D3
:10057000E0EBF1E080E0D81391C01092AF018091E0
:10058000AF01CC0FC82BC093AF018091AE01813079
:1005900009F088C01092AE010E9403026B017C0139
:1005A0008091AF018093BB008091D6019091D701DB
:1005B000A091D801B091D901892B8A2B8B2BA1F066
:1005C0000E9403020091D6011091D7012091D80119
:1005D0003091D9016C197D098E099F0906171707FB
:1005E0002807390708F442C08091BC0083FDD8CFAA
:1005F00085EC8093BC000E9403026B017C0180911A
:10060000D401823009F450C08091D2018F3F09F4A7
:100610006FC08091D201803209F46CC08091D20108
:10062000803309F469C084E026C08091D60190919E
:10063000D701A091D801B091D901892B8A2B8B2B9E
:1006400009F484CF0E9403028090D6019090D701D4
:10065000A090D801B090D9016C197D098E099F092D
:1006600086169706A806B90608F070CF8091D501C6
:100670000E946D0285E01092DB011092FD01109244
:10068000DA01DF91CF911F910F91FF90EF90DF90F2
:10069000CF90BF90AF909F908F9008959D91919330
:1006A0008F5F69CF85EEA5CF8091D6019091D7015C
:1006B000A091D801B091D901892B8A2B8B2B09F4F9
:1006C0009ECF0E9403020091D6011091D701209184
:1006D000D8013091D9016C197D098E099F0906173F
:1006E00017072807390708F08ACFC0CF81E0C3CFAA
:1006F00080E0C1CF82E0BFCF83E0BDCF0895E0911D
:10070000AD018091AC01E81730F4F0E0E457FE4F02
:10071000808190E008958FEF9FEF08958091AC0164
:100720009091AD01891B990B0895CF92DF92EF92C2
:10073000FF920F931F93CF93DF937C01CB018A012C
:100740002091DA01222389F0EB016B01C40ED51E42
:10075000CC15DD0569F06991D701ED91FC9101900F
:10076000F081E02DC7010995F3CF642F0E94280284
:10077000C801DF91CF911F910F91FF90EF90DF9013
:10078000CF900895CF93DF931F92CDB7DEB76983E3
:100790002091DA012223F9F02091FD01203258F056
:1007A00021E030E0FC013383228390E080E00F9071
:1007B000DF91CF9108958091DB01E82FF0E0E452C2
:1007C000FE4F998190838F5F8093DB018093FD01C1
:1007D00081E090E0ECCF61E0CE0101960E9428021A
:1007E000F7CF90E080E00895009769F0FC01019058
:1007F0000020E9F73197AF01481B590BBC018EEF80
:1008000091E00C94AA0090E080E0089585ED80933B
:10081000BC008091D6019091D701A091D801B091F0
:10082000D9010796A11DB11D23E0B695A79597950F
:1008300087952A95D1F72091BC0024FD03C0109222
:10084000D40108954091D6015091D7016091D8010B
:100850007091D901452B462B472B69F30097A105D1
:10086000B10541F025E32A95F1F700000197A109B0
:10087000B109E1CF8091D5010C946D021F920F92C6
:100880000FB60F9211242F933F934F935F936F9363
:100890007F938F939F93AF93BF93EF93FF938EEFCD
:1008A00091E00E942801FF91EF91BF91AF919F913C
:1008B0008F917F916F915F914F913F912F910F9009
:1008C0000FBE0F901F9018951F920F920FB60F92A8
:1008D00011242F938F939F93EF93FF93E0910E0238
:1008E000F0910F028081E0911402F091150282FDD7
:1008F0001BC09081809117028F5F8F732091180227
:10090000821741F0E0911702F0E0E250FE4F958F20
:1009100080931702FF91EF919F918F912F910F90EC
:100920000FBE0F901F9018958081F4CF1F920F92E9
:100930000FB60F9211242F933F938F939F93AF93F2
:10094000BF938091730190917401A0917501B09152
:1009500076013091720123E0230F2D3758F501966F
:10096000A11DB11D209372018093730190937401B6
:10097000A0937501B09376018091770190917801F1
:10098000A0917901B0917A010196A11DB11D8093CA
:10099000770190937801A0937901B0937A01BF9188
:1009A000AF919F918F913F912F910F900FBE0F901C
:1009B0001F90189526E8230F0296A11DB11DD2CFD6
:1009C0001F920F920FB60F9211242F933F934F93C4
:1009D0005F936F937F938F939F93AF93BF93EF93A7
:1009E000FF938091B900887F803609F44AC0F0F502
:1009F000883209F4A7C018F5803109F49BC0B8F417
:100A0000882309F4F9C0883009F494C0FF91EF916C
:100A1000BF91AF919F918F917F916F915F914F9116
:100A20003F912F910F900FBE0F901F901895883116
:100A300009F488C0803251F78093D20114C0803409
:100A400009F49DC040F48033B9F38833F9F68093FC
:100A5000D20185ECB0C0803509F485C0883509F431
:100A600096C0883499F60E940604D0CF883909F4DC
:100A70008CC038F5883729F050F4883611F080376B
:100A800029F683E08093D4011092710157C0883811
:100A900009F47BC0803919F0803809F0B7CF809114
:100AA0007101803208F071C0E091710181E08E0F18
:100AB000809371018091BB00F0E0EF5AFE4F80837C
:100AC0003DC0803B39F0E0F4803A09F479C0883ABF
:100AD00009F09CCF84E08093D401109250011092D1
:100AE0004F01E0917D01F0917E01099580914F01C8
:100AF00081110FC081E080934F0110922F0109C036
:100B0000803C09F4A6CF883C09F4A3CF883B09F0C8
:100B10007DCFE091500181E08E0F80935001F0E095
:100B2000E15DFE4F80818093BB00909150018091E8
:100B30004F0129C08091AF018093BB0085EC809369
:100B4000BC0064CF9091D1018091D001981758F5E5
:100B5000E091D10181E08E0F8093D101F0E0E0556A
:100B6000FE4F8081E9CFE091D10181E08E0F80932B
:100B7000D1018091BB00F0E0E055FE4F8083909161
:100B8000D1018091D0019817C8F285E8D8CFE091C3
:100B9000D10181E08E0F8093D1018091BB00F0E004
:100BA000E055FE4F80838091D30181115CCF81E0BD
:100BB0008093AE0184EA8093BC001092D40126CFCA
:100BC00085EC8093BC001092D40180917101803239
:100BD00030F4E0917101F0E0EF5AFE4F1082609125
:100BE000710170E0E0917B01F0917C0181E591E081
:100BF0000995109271010ACF1092D20134CFEEEF15
:100C0000F1E01382128288EE93E0A0E0B0E08483EA
:100C10009583A683B78324E031E03183208325ECDC
:100C200030E03587248724EC30E03787268720ECB6
:100C300030E0318B208B21EC30E0338B228B22ECA7
:100C400030E0358B248B26EC30E0378B268B118EF1
:100C5000128E138E148EEBE9F2E0138212828483DB
:100C60009583A683B78386E191E09183808308957D
:100C7000CF93DF9300D0CDB7DEB7789484B5826090
:100C800084BD84B5816084BD85B5826085BD85B530
:100C9000816085BD80916E00816080936E001092AE
:100CA0008100809181008260809381008091810029
:100CB00081608093810080918000816080938000BA
:100CC0008091B10084608093B1008091B000816018
:100CD0008093B00080917A00846080937A00809144
:100CE0007A00826080937A0080917A00816080939C
:100CF0007A0080917A00806880937A001092C10017
:100D0000E0910E02F0910F0282E08083E0910A02EE
:100D1000F0910B021082E0910C02F0910D028FEC29
:100D2000808310921602E0911202F091130286E085
:100D30008083E0911002F0911102808180618083B4
:100D4000E0911002F0911102808188608083E0912F
:100D50001002F0911102808180688083E09110027E
:100D6000F091110280818F7D80831092AD011092ED
:100D7000AC011092DB011092FD010E944F0288EA43
:100D800090E090937E0180937D0189EA90E09093BA
:100D90007C0180937B0181E08093DA0188E6809377
:100DA000FC016BE68BE992E00E94C20360E08BE9F4
:100DB00092E00E94C20381E00E948E0233243394A9
:100DC0000FE711E098E6292E3092DA012092FC011B
:100DD0001092DB011092FD016BE38BE992E00E941F
:100DE000C20380E00E948E020E9403026B017C011C
:100DF0008091D401811164C03092D4013092D3012A
:100E00002FEF2093D2011092D1013DE03093D00119
:100E10003092AF018091AF01806D8093AF018091DE
:100E2000AE01813009F027C11092AE010E94030289
:100E30006B017C018091AF018093BB008091D60152
:100E40009091D701A091D801B091D901892B8A2B1B
:100E50008B2BA1F00E9403024090D6015090D70145
:100E60006090D8017090D9016C197D098E099F0995
:100E7000461657066806790608F443C08091BC0000
:100E800083FDD8CF85EC8093BC000E9403026B01E8
:100E90007C018091D401813009F4F1C08091D101AD
:100EA0008E3008F00EC18091D101A0EBB1E0ECE8EA
:100EB000F1E090E0981751F12D9121939F5FFACFC7
:100EC0008091D6019091D701A091D801B091D9011C
:100ED000892B8A2B8B2B09F48BCF0E940302409025
:100EE000D6015090D7016090D8017090D9016C194B
:100EF0007D098E099F09461657066806790608F08F
:100F000077CF8091D5010E946D0280E01092AD01F3
:100F10008093AC010E949500F82E0E949500BF2C92
:100F2000A12C7501E82AF92AF0928B01E0928A013E
:100F30000E949500D82E0E949500DA82198229819C
:100F40003A81822B932B90938901809388010E9490
:100F50009500D82E0E949500812C88299D29909378
:100F60008701809386010E9495000E9495000E944F
:100F700095000E9495000E9495000E9495000E9495
:100F800095000E949500FF92EF9284E291E09F937A
:100F90008F931F930F930E9469088FE791E00E943F
:100FA000F40388E291E00E94F403809189018F9319
:100FB000809188018F9384E291E09F938F931F9398
:100FC0000F930E9469088FE791E00E94F40388E282
:100FD00091E00E94F403809187018F9380918601B4
:100FE0008F9384E291E09F938F931F930F930E94BE
:100FF00069088FE791E00E94F40342E050E06AE262
:1010000071E08EEF91E00E94AA000E9403026B0142
:101010007C010FB6F894DEBF0FBECDBF82E3482E31
:10102000512C612C712C0E9403026C197D098E09D0
:101030009F09683E734081059105A8F391E0491A24
:1010400051086108710828EEC20E23E0D21EE11C8F
:10105000F11C411451046104710429F780E090E00F
:10106000892B09F4B1CE0E941401882309F4AACE79
:101070000E940000A7CE95EE9093BC0006CF809111
:10108000D6019091D701A091D801B091D901892BB7
:101090008A2B8B2B09F4FDCE0E9403024090D601CF
:1010A0005090D7016090D8017090D9016C197D09DA
:1010B0008E099F09461657066806790608F0E9CE9C
:1010C00020CF8EE0F2CEEE0FFF1F0590F491E02DC1
:1010D0000994AEE0B0E0EFE6F8E00C94180B0D894F
:1010E0001E8986E08C831A8309838FEF9FE79E8396
:1010F0008D83AE01475E5F4F6F89788DCE0101967B
:101100000E948C082F813885020F131FF80110826E
:101110002E96E4E00C94340BABE0B0E0E2E9F8E0AA
:101120000C940A0B7C013B018A01FC011782168298
:10113000838181FFC8C1CE0101965C01F7019381D3
:10114000F30193FD859193FF81913F01882309F479
:1011500053C1853239F493FD859193FF81913F010D
:10116000853229F4B70190E00E947C0AE7CF912CE8
:10117000212C312CFFE1F31538F08B3211F190F472
:10118000803209F1833229F137FC3CC020ED280F71
:101190002A3050F536FE20C08AE0989E200D11249A
:1011A000922E06C08D3291F0803371F7689430F83A
:1011B000F30193FD859193FF81913F018111DACF76
:1011C00021C0689431F8689432F8F2CF689433F80B
:1011D000EFCF689434F8ECCFEAE02E9E200D112476
:1011E000222E689435F8E4CF8E3229F436FC04C1FF
:1011F000689436F8DDCF8C3619F4689437F8D8CF78
:101200008836B1F2982F9F7D95549330E0F0833665
:10121000A1F18337C1F1833509F063C02801F2E001
:101220004F0E511CF801C080D180692D70E036FC52
:1012300002C06FEF7FEFC6010E94660A4C016894FE
:1012400037F882010AC00C5F1F4FFFE3F98388243F
:101250008394912C6501E89437F833FE2DC0522C0D
:101260008114910471F5552009F468CFB70180E22B
:1012700090E00E947C0A5A94F6CFF801808189831D
:101280000E5F1F4FE4CF2801F2E04F0E511CF80112
:10129000C080D180692D70E036FC02C06FEF7FEF17
:1012A000C6010E94710A4C018201D5CFB70180E2CC
:1012B00090E00E947C0A2A942814190409F0B0F7DF
:1012C000CECFF60137FC859137FE81916F01B701D2
:1012D00090E00E947C0A51105A94F1E08F1A910814
:1012E000BFCF843619F0893609F077C0F80137FE90
:1012F0006BC060817181828193810C5F1F4FF32DE0
:10130000FF763F2E97FF09C0909580957095619567
:101310007F4F8F4F9F4F689437F82AE030E0A50148
:101320000E94AC0AC82ECA188C2C432C36FE0CC066
:10133000E89440F8C91440F434FE05C032FC03C000
:10134000F32DFE7E4F2E892C44FE95C0FE01EC0D40
:10135000F11D8081803309F087C0242D297E422E23
:10136000842D8870582E43FC95C040FE8FC09C2C65
:10137000821418F42C0C922C981844FE91C0B701DA
:1013800080E390E00E947C0A42FE09C088E790E07A
:1013900041FE02C088E590E0B7010E947C0AC914B2
:1013A00008F48AC0CA94D12C9FEFC91AD90ACA0C72
:1013B000DB1CF60182916F01B70190E00E947C0A6C
:1013C000AC14BD04B1F74FCF60817181072E000CC2
:1013D000880B990B0E5F1F4F92CFD32CE894D4F853
:1013E0002AE030E0853739F1232D297FD22E8F3640
:1013F00001F148F48835A9F0F701868197812B9691
:10140000E2E10C94260B803749F08837A9F7D4FE27
:1014100002C06894D2F820E130E00DC06894D4F89E
:10142000F6CF34FE03C0822F8660D82E20E132E052
:1014300002C028E030E0F801D7FE0FC06081718162
:10144000828193810C5F1F4FA5010E94AC0AC82EB8
:10145000CA183D2CE89437F867CF6081718190E01D
:1014600080E00E5F1F4FF0CF42FC02C0839478CF24
:101470008394839475CF842D867809F471CFF6CF49
:10148000B70180E290E00E947C0A83948214C0F34A
:10149000512C73CF522C5818821408F46ECFF8CF09
:1014A000842D867809F47BCF8BE241FE80E247FCF5
:1014B0008DE2B70190E071CFB70180E390E00E9428
:1014C0007C0A9A946CCF8FEF9FEF99CFFC01059027
:1014D000615070400110D8F7809590958E0F9F1F36
:1014E0000895FC016150704001900110D8F780957B
:1014F00090958E0F9F1F08950F931F93CF93DF93A7
:10150000182F092FEB018B8181FD09C01FEF0FEF11
:10151000812F902FDF91CF911F910F91089582FF1E
:1015200014C02E813F818C819D81281739073CF49E
:10153000E881F981CF0101969983888310838E8198
:101540009F8101969F838E83E3CFE885F985812F64
:101550000995892BA1F3DACFFA01AA27283051F196
:10156000203181F1E8946F936E7F6E5F7F4F8F4FD4
:101570009F4FAF4FB1E03ED0B4E03CD0670F781F33
:10158000891F9A1FA11D680F791F8A1F911DA11D18
:101590006A0F711D811D911DA11D20D009F4689451
:1015A0003F912AE0269F11243019305D3193DEF6F9
:1015B000CF010895462F4770405D4193B3E00FD0AF
:1015C000C9F7F6CF462F4F70405D4A3318F0495D9A
:1015D00031FD4052419302D0A9F7EACFB4E0A6957D
:1015E0009795879577956795BA95C9F7009761059F
:1015F000710508959B01AC010A2E069457954795F5
:1016000037952795BA95C9F7620F731F841F951FE9
:10161000A01D08952F923F924F925F926F927F92FA
:101620008F929F92AF92BF92CF92DF92EF92FF92F2
:101630000F931F93CF93DF93CDB7DEB7CA1BDB0B9E
:101640000FB6F894DEBF0FBECDBF09942A88398843
:1016500048885F846E847D848C849B84AA84B9844A
:10166000C884DF80EE80FD800C811B81AA81B98156
:10167000CE0FD11D0FB6F894DEBF0FBECDBFED016A
:061680000895F894FFCF6D
:10168600000000004A01AA00D70097010801E60001
:10169600FA0000000000C2039503F1037E038E03E7
:0E16A60082007F032536640020000D0A00003C
:00000001FF
